{
  "_format": "hh-sol-artifact-1",
  "contractName": "TaskContract",
  "sourceName": "contracts/TaskContract.sol",
  "abi": [
    {
      "anonymous": false,
      "inputs": [
        {
          "indexed": false,
          "internalType": "address",
          "name": "recipient",
          "type": "address"
        },
        {
          "indexed": false,
          "internalType": "uint256",
          "name": "taskId",
          "type": "uint256"
        }
      ],
      "name": "AddTask",
      "type": "event"
    },
    {
      "anonymous": false,
      "inputs": [
        {
          "indexed": false,
          "internalType": "uint256",
          "name": "taskId",
          "type": "uint256"
        },
        {
          "indexed": false,
          "internalType": "bool",
          "name": "isDeleted",
          "type": "bool"
        }
      ],
      "name": "DeleteTask",
      "type": "event"
    },
    {
      "inputs": [
        {
          "internalType": "string",
          "name": "taskText",
          "type": "string"
        },
        {
          "internalType": "bool",
          "name": "isDeleted",
          "type": "bool"
        },
        {
          "internalType": "enum TaskContract.Priority",
          "name": "priority",
          "type": "uint8"
        }
      ],
      "name": "addTask",
      "outputs": [],
      "stateMutability": "nonpayable",
      "type": "function"
    },
    {
      "inputs": [
        {
          "internalType": "uint256",
          "name": "taskId",
          "type": "uint256"
        },
        {
          "internalType": "bool",
          "name": "isDeleted",
          "type": "bool"
        }
      ],
      "name": "deleteTask",
      "outputs": [],
      "stateMutability": "nonpayable",
      "type": "function"
    },
    {
      "inputs": [],
      "name": "getMyTasks",
      "outputs": [
        {
          "components": [
            {
              "internalType": "uint256",
              "name": "id",
              "type": "uint256"
            },
            {
              "internalType": "address",
              "name": "username",
              "type": "address"
            },
            {
              "internalType": "string",
              "name": "taskText",
              "type": "string"
            },
            {
              "internalType": "bool",
              "name": "isDeleted",
              "type": "bool"
            },
            {
              "internalType": "enum TaskContract.Priority",
              "name": "priority",
              "type": "uint8"
            }
          ],
          "internalType": "struct TaskContract.Task[]",
          "name": "",
          "type": "tuple[]"
        }
      ],
      "stateMutability": "view",
      "type": "function"
    }
  ],
  "bytecode": "0x6080604052348015600f57600080fd5b506110a48061001f6000396000f3fe608060405234801561001057600080fd5b50600436106100415760003560e01c8063609d56ed146100465780636e13f81814610062578063aaba290714610080575b600080fd5b610060600480360381019061005b91906108d7565b61009c565b005b61006a61026b565b6040516100779190610bdd565b60405180910390f35b61009a60048036038101906100959190610c2b565b6105e6565b005b60008080549050905060006040518060a001604052808381526020013373ffffffffffffffffffffffffffffffffffffffff16815260200186815260200185151581526020018460028111156100f5576100f4610a5a565b5b81525090806001815401808255809150506001900390600052602060002090600402016000909190919091506000820151816000015560208201518160010160006101000a81548173ffffffffffffffffffffffffffffffffffffffff021916908373ffffffffffffffffffffffffffffffffffffffff16021790555060408201518160020190816101879190610e77565b5060608201518160030160006101000a81548160ff02191690831515021790555060808201518160030160016101000a81548160ff021916908360028111156101d3576101d2610a5a565b5b02179055505050336001600083815260200190815260200160002060006101000a81548173ffffffffffffffffffffffffffffffffffffffff021916908373ffffffffffffffffffffffffffffffffffffffff1602179055507f1f54e1ba1832d428fbd7e7792beaf62b1fc5a382c207ffd614209c1413e94fda338260405161025d929190610f67565b60405180910390a150505050565b60606000808054905067ffffffffffffffff81111561028d5761028c61074f565b5b6040519080825280602002602001820160405280156102c657816020015b6102b36106c7565b8152602001906001900390816102ab5790505b5090506000805b600080549050811015610532573373ffffffffffffffffffffffffffffffffffffffff166001600083815260200190815260200160002060009054906101000a900473ffffffffffffffffffffffffffffffffffffffff1673ffffffffffffffffffffffffffffffffffffffff1614801561037e5750600015156000828154811061035b5761035a610f90565b5b906000526020600020906004020160030160009054906101000a900460ff161515145b15610525576000818154811061039757610396610f90565b5b90600052602060002090600402016040518060a0016040529081600082015481526020016001820160009054906101000a900473ffffffffffffffffffffffffffffffffffffffff1673ffffffffffffffffffffffffffffffffffffffff1673ffffffffffffffffffffffffffffffffffffffff16815260200160028201805461042090610c9a565b80601f016020809104026020016040519081016040528092919081815260200182805461044c90610c9a565b80156104995780601f1061046e57610100808354040283529160200191610499565b820191906000526020600020905b81548152906001019060200180831161047c57829003601f168201915b505050505081526020016003820160009054906101000a900460ff161515151581526020016003820160019054906101000a900460ff1660028111156104e2576104e1610a5a565b5b60028111156104f4576104f3610a5a565b5b8152505083838151811061050b5761050a610f90565b5b6020026020010181905250818061052190610fee565b9250505b80806001019150506102cd565b5060008167ffffffffffffffff81111561054f5761054e61074f565b5b60405190808252806020026020018201604052801561058857816020015b6105756106c7565b81526020019060019003908161056d5790505b50905060005b828110156105dc578381815181106105a9576105a8610f90565b5b60200260200101518282815181106105c4576105c3610f90565b5b6020026020010181905250808060010191505061058e565b5080935050505090565b3373ffffffffffffffffffffffffffffffffffffffff166001600084815260200190815260200160002060009054906101000a900473ffffffffffffffffffffffffffffffffffffffff1673ffffffffffffffffffffffffffffffffffffffff16036106c357806000838154811061066157610660610f90565b5b906000526020600020906004020160030160006101000a81548160ff0219169083151502179055507ff88a35c3d2016c409a46570b994a17b408dbc83c14a03f521512d50b85386d0682826040516106ba929190611045565b60405180910390a15b5050565b6040518060a0016040528060008152602001600073ffffffffffffffffffffffffffffffffffffffff168152602001606081526020016000151581526020016000600281111561071a57610719610a5a565b5b81525090565b6000604051905090565b600080fd5b600080fd5b600080fd5b600080fd5b6000601f19601f8301169050919050565b7f4e487b7100000000000000000000000000000000000000000000000000000000600052604160045260246000fd5b6107878261073e565b810181811067ffffffffffffffff821117156107a6576107a561074f565b5b80604052505050565b60006107b9610720565b90506107c5828261077e565b919050565b600067ffffffffffffffff8211156107e5576107e461074f565b5b6107ee8261073e565b9050602081019050919050565b82818337600083830152505050565b600061081d610818846107ca565b6107af565b90508281526020810184848401111561083957610838610739565b5b6108448482856107fb565b509392505050565b600082601f83011261086157610860610734565b5b813561087184826020860161080a565b91505092915050565b60008115159050919050565b61088f8161087a565b811461089a57600080fd5b50565b6000813590506108ac81610886565b92915050565b600381106108bf57600080fd5b50565b6000813590506108d1816108b2565b92915050565b6000806000606084860312156108f0576108ef61072a565b5b600084013567ffffffffffffffff81111561090e5761090d61072f565b5b61091a8682870161084c565b935050602061092b8682870161089d565b925050604061093c868287016108c2565b9150509250925092565b600081519050919050565b600082825260208201905092915050565b6000819050602082019050919050565b6000819050919050565b61098581610972565b82525050565b600073ffffffffffffffffffffffffffffffffffffffff82169050919050565b60006109b68261098b565b9050919050565b6109c6816109ab565b82525050565b600081519050919050565b600082825260208201905092915050565b60005b83811015610a065780820151818401526020810190506109eb565b60008484015250505050565b6000610a1d826109cc565b610a2781856109d7565b9350610a378185602086016109e8565b610a408161073e565b840191505092915050565b610a548161087a565b82525050565b7f4e487b7100000000000000000000000000000000000000000000000000000000600052602160045260246000fd5b60038110610a9a57610a99610a5a565b5b50565b6000819050610aab82610a89565b919050565b6000610abb82610a9d565b9050919050565b610acb81610ab0565b82525050565b600060a083016000830151610ae9600086018261097c565b506020830151610afc60208601826109bd565b5060408301518482036040860152610b148282610a12565b9150506060830151610b296060860182610a4b565b506080830151610b3c6080860182610ac2565b508091505092915050565b6000610b538383610ad1565b905092915050565b6000602082019050919050565b6000610b7382610946565b610b7d8185610951565b935083602082028501610b8f85610962565b8060005b85811015610bcb5784840389528151610bac8582610b47565b9450610bb783610b5b565b925060208a01995050600181019050610b93565b50829750879550505050505092915050565b60006020820190508181036000830152610bf78184610b68565b905092915050565b610c0881610972565b8114610c1357600080fd5b50565b600081359050610c2581610bff565b92915050565b60008060408385031215610c4257610c4161072a565b5b6000610c5085828601610c16565b9250506020610c618582860161089d565b9150509250929050565b7f4e487b7100000000000000000000000000000000000000000000000000000000600052602260045260246000fd5b60006002820490506001821680610cb257607f821691505b602082108103610cc557610cc4610c6b565b5b50919050565b60008190508160005260206000209050919050565b60006020601f8301049050919050565b600082821b905092915050565b600060088302610d2d7fffffffffffffffffffffffffffffffffffffffffffffffffffffffffffffffff82610cf0565b610d378683610cf0565b95508019841693508086168417925050509392505050565b6000819050919050565b6000610d74610d6f610d6a84610972565b610d4f565b610972565b9050919050565b6000819050919050565b610d8e83610d59565b610da2610d9a82610d7b565b848454610cfd565b825550505050565b600090565b610db7610daa565b610dc2818484610d85565b505050565b5b81811015610de657610ddb600082610daf565b600181019050610dc8565b5050565b601f821115610e2b57610dfc81610ccb565b610e0584610ce0565b81016020851015610e14578190505b610e28610e2085610ce0565b830182610dc7565b50505b505050565b600082821c905092915050565b6000610e4e60001984600802610e30565b1980831691505092915050565b6000610e678383610e3d565b9150826002028217905092915050565b610e80826109cc565b67ffffffffffffffff811115610e9957610e9861074f565b5b610ea38254610c9a565b610eae828285610dea565b600060209050601f831160018114610ee15760008415610ecf578287015190505b610ed98582610e5b565b865550610f41565b601f198416610eef86610ccb565b60005b82811015610f1757848901518255600182019150602085019450602081019050610ef2565b86831015610f345784890151610f30601f891682610e3d565b8355505b6001600288020188555050505b505050505050565b610f52816109ab565b82525050565b610f6181610972565b82525050565b6000604082019050610f7c6000830185610f49565b610f896020830184610f58565b9392505050565b7f4e487b7100000000000000000000000000000000000000000000000000000000600052603260045260246000fd5b7f4e487b7100000000000000000000000000000000000000000000000000000000600052601160045260246000fd5b6000610ff982610972565b91507fffffffffffffffffffffffffffffffffffffffffffffffffffffffffffffffff820361102b5761102a610fbf565b5b600182019050919050565b61103f8161087a565b82525050565b600060408201905061105a6000830185610f58565b6110676020830184611036565b939250505056fea2646970667358221220753124fab6448b92a630721c8283525be52f6d15fec30d92045f01a4886c0aa464736f6c634300081b0033",
  "linkReferences": {},
  "deployedLinkReferences": {}
}